:400000000080002011000000551600005516000080B500AF024A034B1B68136001F04CFBBC760040FA46004010B5054C237833B9044B13B10448AFF300800123237010BDF9
:400040007081FF1F00000000B08C0000084B10B51BB108490848AFF300800848036803B910BD074B002BFBD0BDE81040184700BF000000007481FF1FB08C0000C880FF1F3A
:400080000000000080B500AF174B1B88184600F051FD164B1B8801339AB2144B1A80134B1A88134B1B889A4214D304F02DF803F0DDFF0E4B1B881A460E4B4FF4404123F8FE
:4000C000121000F0BBFC094B00221A8005210A4800F0CEFB054B1B881A46084B33F81220014B1A8000BF80BDF8ACFF1F7A490020CC80FF1F38ADFF1FB88C0000E481FF1F38
:4001000098B500AF054B1B881C4604F055FD03461A46034B23F8142000BF98BD7A49002038ADFF1FB0B500AF274B1B781D46274B1B881C4604F040FD03461946244A41F27B
:40014000883303FB05F3234422F813101F4B1B8801339AB21D4B1A801C4B1A881D4B1B889A422FD3184B1B781846184B1B881946174A41F2883303FB00F30B444FF440419D
:4001800022F81310114B00221A800F4B1A78124B1A700D4B1B785A1C104B1340002B03DA013B63F003030133DAB2074B1A700A4B1B781A460A490B4808F056F90621094822
:4001C00000F056FB00BFB0BD8E81FF1F7A49002038ADFF1FCE80FF1F7C49002003000080C08C00008049002080B582B000AF62B60221002001F0F6FA00F0D6FB00BF01F0B3
:40020000A7FC0346002BFAD09F4803F0DBFE03F02DFF9E4803F036FF03F076FF022001F0CBFD9B4805F08CFF05F0DEFF0021032003F002FD03F046FD01F096FC0346002B22
:4002400008D000BF01F084FC0346002BFAD0022001F0B2FD8F4B1B78002B06D18E4800F0E7FA03461A468B4B1A708A4B1B78012BE0D1894B1B78413B322B00F2FE8001A2BF
:4002800052F823F0D1030000B1030000B70300003304000075030000510300007B0400006B040000ED0300007B0400007B040000F3030000450400007B0400007B04000083
:4002C0007B04000013040000E103000023040000C90300007B040000D90300007B040000E70300007B0400007B0400007B0400007B0400007B0400007B0400007B04000054
:400300007B0400007B0400007B0400007B040000750400007B0400007B0400007B0400007B0400007B0400007B0400007B0400007B0400007B0400007B0400007B040000D3
:400340007B0400007B0400007B0400006F040000514B5B78303BFB71FB7942F2107202FB03F34E4A1A444E4B1B881946104600F07FFA82E0484B5B78303BBB71BB79042B18
:4003800011D8BB7942F2107202FB03F3434A1A44444B1B8801339BB25B009BB21946104600F066FA69E010213F4800F061FA64E000F084F861E005213C4800F04FFB0346C2
:4003C000184603F06FFD58E0334800F0B1FC54E0314800F0C9FB50E02F4800F015FC4CE000F03EFC49E000F081FC46E000F090FC43E001212D4800F031FB0346DBB2023B70
:40040000DAB22B4B1A702A4B1B78184605F036FA33E0214800F0AAFC03461A46214B1A802BE01D4800F0DAFC03461A461D4B1A8023E004211D4800F011FB0346184600F0E3
:4004400079FB1AE01B4B00221A70134800F022FD03461A46184B1A80174B1B8801339BB25B009AB20E4B1A8007E000F0C9FA022000F0B4FE022000F0E7FE074B30221A7049
:40048000044B00221A70D5E68500000001010000250100008C81FF1FF8A8FF1F38ADFF1F20ADFF1FCC80FF1FC88C0000FAA8FF1F8D81FF1F8E81FF1FCE80FF1FB0B586B024
:4004C00000AF05F095FD002005F000FE00F0BAF8642003F07BFB404B1B781A463F4B33F812307B820223FB6000237B81F86807F0BFFB04460D463A4B1B78184607F0B8FB45
:4005000002460B462046294606F094F903460C461846214607F0D2FE03467B7204F03CFB7B890221184600F061F87B7A7A8A02FB03F3184607F0ACFB03460C461A46234628
:400540004FF00000274907F033FD03460C461846214607F0D3FE03467B60786807F01EFF03467B617B69FA2B04DD7B69DA0F13445B107B61042005F089FD7B699BB20021FA
:40058000184600F033F87B69DA0F13445B109BB20121184600F02AF8002005F077FD7B69DA0F13445B109BB20321184600F01EF87B699BB20421184600F018F8002005F09E
:4005C00085FD00F04DF81421074800F051F900BF1837BD46B0BD00BFFAACFF1FD88C0000F4A8FF1F0040BF4024ADFF1F80B582B000AF03460A46FB8013467B71FB88DBB2BA
:40060000184605F063FD642003F0E0FA04F0D4FA03469AB2094B1A807B79B7F90610084A22F813107B790533044A128811B2044A22F8131000BF0837BD4680BD9281FF1F57
:4006400024ADFF1F80B500AF002005F073F903F015FF04F053F804F093FD00BF80BD00BF80B500AF012005F065F903F0EDFE04F02BF804F053FD05F0CFFC00BF80BD00BF95
:4006800080B584B000AF03460A46FB801346BB800023FB81B988FB880022184600F056F80346FB81FB89013B9AB2F988BB88184600F04CF80346FB81FB890649FA8821F8FF
:4006C0001320FB890133FB81FB8918461037BD4680BD00BFE481FF1F80B584B000AF03460A46FB801346BB800023FB81154B1B88F9880022184600F029F80346FB81FB892B
:40070000013B9AB2B988FB88184600F01FF80346FB810C4B1988FB89013B9AB2BB88184600F014F80346FB81FB89064A1188064A22F81310FB890133FB81FB891846103786
:40074000BD4680BDFCACFF1FE481FF1F80B485B000AF0346FB800B46BB8013467B80FA88BB889A4212D2FB88FB810AE07B881349FA8921F813207B8801337B80FB890133AE
:40078000FB81FA89BB889A42F0D911E0FB88BB810AE07B880949BA8921F813207B8801337B80BB89013BBB81BA89BB889A42F0D27B8818461437BD4680BC7047E481FF1F9D
:4007C00080B485B000AF03460A46FB801346BB800023FB6007E01549FB68FA8821F81320FB680133FB60FB68B3F57A7FF3DB07E00E49FB68BA8821F81320FB680133FB6060
:40080000FB68B3F5FA6FF3DB07E00849FB68FA8821F81320FB680133FB60FB68B3F57A6FF3DB00BF1437BD4680BC7047E481FF1F80B584B000AF7860022001F0ADF90346E4
:40084000012B10D1022001F0BDF90346FB73FB7B9BB21A467968022001F068FA022001F0ABFA012300E0002318461037BD4680BD80B584B000AF78600B467B800023FB60F4
:4008800024E000BF012001F087F90346012BF9D1FB689BB27A88D31A7B817B89402B01D940237B81012001F077F90346012B0AD1FB687A6813447A891946012001F0B2F9D4
:4008C000022001F079FAFB684033FB607A88FB689A42D6DC00BF1037BD4680BD80B500AF002000F043F80346184680BD80B582B000AF0346FB710C4AFB791370FB79002148
:40090000184600F013F8084B1B78022B02D104F067FE01E005F052F800F0C8F800F0EAF800BF0837BD4680BD7849002080B584B000AF03460A46FB711346BB8005F06AFA54
:400940000A2003F065F905F019FB0346FB73BA88FB791146184605F069FA0346FB7305F05FFA00BF1037BD4680BD00BF80B584B000AF0346FB8005F04DFA0A2003F048F9F9
:4009800005F0FCFA0346FB730A2003F041F9FB88184605F0D5FA0346BB7305F041FABB7B18461037BD4680BD80B500AF00F01AF800F044F804F048FF04F0A2FF04F072FF90
:4009C00004F014FF04F06EFF00F070F8012004F055FF012004F0AEFF002004F07DFF00BF80BD00BF80B500AF03F0E2FF03F094FC03F080FD03F0C0FB03F0BCF900BF80BDC4
:400A000080B500AF04F0BCFB03F038FD03F076FE00F080F8012003F0D9F8074B1B88184600F088F80A2003F0D1F803F027FC03F0BBFA00BF80BD00BFF8ACFF1F80B500AF83
:400A400004F06CFB00F056F803F0FEFC03F03CFE03F0FAFB03F08EFA00BF80BD80B485B000AF78600B46FB700023FB810023BB6011E0FB891A46920013445B009AB2BB6853
:400A800079680B441B789BB213449BB2303BFB81BB680133BB60FA78BB689A42E9DCFB8918461437BD4680BC704700BF80B500AFFFF714FF03461A460C4B1A700B4B1B78B1
:400AC000022B09D104F068FF094B4FF400621A80012004F0A5FE07E004F06EFD044B80221A80002004F09CFE00BF80BD78490020FCACFF1F80B500AF054B1B78022B02D160
:400B000004F0E8FF01E004F041FE00BF80BD00BF7849002080B500AF054B1B78022B02D104F0F2FF01E004F04BFE00BF80BD00BF7849002080B582B000AF0346FB80094B96
:400B40001B78022B04D1FB88184604F047FF04E0FB88DBB2184604F09DFD00BF0837BD4680BD00BF7849002080B584B000AF78607B6802331B78303BFB73FB7B012B02D01F
:400B8000FB7B022B04D1FB7B0021184604F06AF97B6804331B78303BDAB2184B1A70174B1B78184603F000FC7B6806331B78303BDAB2134B1A70124B1B78184603F0CEFF02
:400BC0007B6808331B78542B11D10E4B01221A707B680A331B78303BDAB20A4B5A707B68083300221A70002000F068FB02E0002000F09AFB00BF1037BD4680BDFAACFF1F46
:400C0000F4A8FF1FC049002080B584B000AF78607B6801331B78522B0CD156233B73FFF75DFE03467B7307F10C0302211846FFF71FFE10E07B6801331B78532B0BD17B68BC
:400C400002331B78303BDBB21846FFF74FFEFFF72DFFFFF74FFF00BF1037BD4680BD00BF98B500AF03F0F0F90346002B2ED105F0A9FA0346002B01D005F0B6FA164B002258
:400C80001A80164B1A88164B1A80FFF7B9FE144B1B881846FFF74EFF012002F097FF03F07BFF142002F092FF642003F0CBF80A4B1B881C4603F080FF03461A46094B23F861
:400CC000142003F0B5F903F013FA03E007210648FFF7CEFD00BF98BD7A490020E481FF1FF8ACFF1F38ADFF1FE88C000080B500AF03F0BCF903F008FA05F076FAFFF79EFEDA
:400D0000024B00221A8000BF80BD00BF7A49002080B500AF05F068FA03F0F6F903F0A6F90F210248FFF7A4FD00BF80BDF08C000080B584B000AF786003F036F97B680233AA
:400D400005211846FFF78AFE0346FB81FB895B089BB2184603F0A6F8FB89184603F092F803F008F900BF1037BD4680BD80B584B000AF786003F018F97B6802330421184661
:400D8000FFF76CFE0346FB817B68073304211846FFF764FE0346BB817B680C3305211846FFF75CFE03467B817B89184603F06AF8BA89FB8911461846FFF702FD054B1A883C
:400DC000054B1A8003F0D6F84FF47A6318461037BD4680BDE481FF1FF8ACFF1F80B586B000AF786003F0E0F87B68023304211846FFF734FE0346BB827B6807330421184658
:400E0000FFF72CFE03467B827B680C3305211846FFF724FE03463B827B689B7CFB737B68DB7CBB733B8A184603F02CF8FB7B4C2B09D1798ABB8A00221846FFF787FC03462D
:400E40000133FB8216E0BB7B5A2B08D17A8ABB8A11461846FFF740FC0346FB820AE0BB7B532B07D17A8ABB8A11461846FFF708FC0346FB82054B1A88054B1A8003F07AF8CC
:400E8000FB8A18461837BD4680BD00BFE481FF1FF8ACFF1F80B584B000AF7860FFF7B0FD05F090F90346002B08D103F0CDF80346002B03D003F0DAF803F026F97B68023370
:400EC00004211846FFF7CAFD0346FB810D4B00221A80FB891846FFF72DFE03F05DFE0F2002F074FE7B68073304211846FFF7B6FD0346BB8105F05AF9BB8918461037BD46F3
:400F000080BD00BF7A49002080B582B000AF786039603A680021786807F09DFA00BF0837BD4680BD80B584B000AFF860B9607A607A68B968F86807F083FA00BF1037BD4699
:400F400080BD00BF80B483B000AF0346FB71FEE780B487B000AF7860396000233B6100237B6127E07B699B007A6813441B68BB60BB68FB73BB6823F0FF03BB6014E03B69A3
:400F80005B003A6813441B781A46BB68134419463B695B003A6813445B780B703B6901333B61FB7B013BFB73FB7B002BE7D17B6901337B617B69162BD4D900BF1C37BD4603
:400FC00080BC704780B582B000AF424B00221A80414B50221A70414B63221A80404B18221A70404B5F221A803F4B18221A7004223E493F48FFF796FF3E4B06221A703E4BA6
:4010000052221A703D4B3E4A1278D2B21A703D4B4FF4E1621A803C4B41F251221A800023FB7019237B6014E0FB785B00DAB2374B1B78DBB203F00103DBB21343DBB203F0AC
:401040000303FB704FF4F07005F0DAF87B68013B7B607B68002B02D0FB78032BE4D17B68002B02D10320FFF76DFF294B4FF480721A80274B07221A70264B00221A70264B09
:4010800048221A70224B00221A70244B00221A70234B02221A70234B04221A70224A224B1B78DBB243F00703DBB213701F4A1F4B1B78DBB243F00103DBB213701C4A1C4B81
:4010C0001B78DBB263F07F03DBB2137000BF0837BD4680BD80400040824000408440004086400040884000408A400040A8010048004100400043004000420040A1460040F1
:401100000F01004922420040204200402542004004400040064000400840004009400040014000400B400040A2430040A1430040A043004080B483B000AF1A4B1B78FB715C
:40114000194AFB7903F00703DBB21370174AFB791B09DBB21370164B80221A70154B02221A70154B80221A70144B02221A70144B40221A70134B02221A70134B20221A70CD
:40118000124B40221A70124B02221A70114B04221A70114B44221A7000BF0C37BD4680BC704700BFCF0100496E5800406F5800400D5100403D510040205A0040245A0040C2
:4011C000285A0040805A0040985A0040005B0040045B0040435B00407658004080B483B000AF0346FB71FB79022B24D8FA79FB791344FB71FB79124A52F82330FA79104970
:4012000051F822201178FA790E48825C0A43D2B21A70FB790133FB71FB79094A52F82330FA79074951F822201178FA790548825C0A43D2B21A7000BF0C37BD4680BC704758
:40124000008D0000188D000080B483B000AF0346FB71FB79022B28D8FA79FB791344FB71FB79144A52F82330FA79124951F822201178FA791048825CD243D2B20A40D2B2C5
:401280001A70FB790133FB71FB790A4A52F82330FA79084951F822201178FA790648825CD243D2B20A40D2B21A7000BF0C37BD4680BC7047008D0000188D000080B483B032
:4012C00000AF0346FB71FB79002B24D1FA79FB791344FB71FB79124A52F82330FA79104951F822201178FA790E48825C0A43D2B21A70FB790133FB71FB79094A52F8233085
:40130000FA79074951F822201178FA790548825C0A43D2B21A7000BF0C37BD4680BC7047208D0000288D000080B483B000AF0346FB71FB79002B28D1FA79FB791344FB7176
:40134000FB79144A52F82330FA79124951F822201178FA791048825CD243D2B20A40D2B21A70FB790133FB71FB790A4A52F82330FA79084951F822201178FA790648825C92
:40138000D243D2B20A40D2B21A7000BF0C37BD4680BC7047208D0000288D000080B483B000AF0346FB71FB79012B24D8FA79FB791344FB71FB79124A52F82330FA79104998
:4013C00051F822201178FA790E48825C0A43D2B21A70FB790133FB71FB79094A52F82330FA79074951F822201178FA790548825C0A43D2B21A7000BF0C37BD4680BC704797
:401400002C8D00003C8D000080B483B000AF0346FB71FB79012B28D8FA79FB791344FB71FB79144A52F82330FA79124951F822201178FA791048825CD243D2B20A40D2B2B4
:401440001A70FB790133FB71FB790A4A52F82330FA79084951F822201178FA790648825CD243D2B20A40D2B21A7000BF0C37BD4680BC70472C8D00003C8D000080B483B020
:4014800000AF0346FB71FB79012B0ED8FB79094A52F82330FA79074951F822201178FA790548825C0A43D2B21A7000BF0C37BD4680BC7047408D0000488D000080B483B00D
:4014C00000AF0346FB71FB79012B10D8FB790A4A52F82330FA79084951F822201178FA790648825CD243D2B20A40D2B21A7000BF0C37BD4680BC7047408D0000488D000099
:4015000080B582B000AF72B63E4A3E4B1B78DBB243F00403DBB213700023FB7113E0FA7913465B0013445B00374A13443B603B681A683B689B889BB219461046FFF7E4FC61
:40154000FB790133FB71FB79072BE8D92F494FF09040FFF7FDFC2E4B0A221A7004212D48FFF7D2FC2C4A2C4B1B78DBB243F00203DBB21370294A294B1B78DBB243F0020359
:40158000DBB21370264A264B1B78DBB243F04003DBB21370234A234B1B78DBB243F01003DBB21370082220492048FFF7BBFC0A221F492048FFF7B6FC08221F491F48FFF708
:4015C000B1FC08221E491F48FFF7ACFC1E4A1E4B1B78DBB243F00803DBB213701B4B61221A70FFF7EFFC194B81221A70FFF7A2FD0E220B491648FFF795FC00BF0837BD4685
:4016000080BD00BFE84600404C8D00005C00004883580040007600400350014013500140A0430040C243004084010048025100408C010048F0510040980100481251004018
:40164000A0010048325100402243004000480040B043004080B500AF06F0C6FE03461B680C2B00D1FEE7FEE780B584B000AF78600F4B1A687B6813441A460E4BD31A802BCB
:4016800009DC0B4B1B68FB60094B1A687B681344074A136007E006F0A7FE02460C2313604FF0FF33FB60FB6818461037BD4680BDD080FF1F784A002080B586B000AF224BE6
:4016C0007B61224B3B61204B7B6135E03B691B68FB603B695B68BB603B699B683B6000237B600CE0FB681A68BB681A60BB680433BB60FB680433FB607B6804337B607A68B6
:401700003B689A42EED13B69DB683B6000237B6008E0BB6800221A60BB680433BB607B6804337B607A683B689A42F2D13B6910333B617B69013B7B617B69002BC6D106F09B
:4017400059FEFEF751FDFEE701000000EC8F000080B582B000AF194B194A1A60194A194B1B6843F40073136000237B600FE07B68032B04D8144A7B6852F8233000E0134BBA
:4017800013497A6841F822307B6801337B607B682F2BECD90F4B1B78DAB20F4B1A700F4B0B4A1A60FFF7ACFE01F0E8FF0C4B00221A6000BF0837BD4680BD00BF0CED00E0A5
:4017C0000004FA0514ED00E000000000551600000080FF1FBC760040C480FF1F08ED00E0C080FF1F80B582B000AF03460A46FB711346BB71094B1B78002B04D100F010F876
:40180000064B01221A70BA79FB791146184600F0CFF800BF0837BD4680BD00BF9481FF1F80B582B000AF04F0F3FC0346FB71504A4F4B1B78DBB243F00103DBB213704D4A87
:401840004C4B1B78DBB243F00103DBB213704A4B01221A70494B02221A70494A484B1B78DBB203F07F03DBB21370002002F0D0F9444A444B1B78DBB223F00603DBB21370D7
:40188000414A414B1B78DBB223F02003DBB213703C4A3C4B1B78DBB243F00103DBB21370012002F0B5F9282002F0B2F9374A374B1B78DBB203F07F03DBB21370334A334BEE
:4018C0001B78DBB223F04003DBB213702D4A2D4B1B78DBB243F00203DBB21370022002F097F9284A274B1B78DBB243F00403DBB21370274B00221A70264B00221A70FB796A
:40190000184604F089FC0721172002F00FFA2249172002F0E3F90721182002F007FA1F49182002F0DBF90721152002F0FFF91C49152002F0D3F90721002002F0F7F9194922
:40194000002002F0CBF90721012002F0EFF91649012002F0C3F907210C2002F0E7F913490C2002F0BBF900BF0837BD4680BD00BFA5430040B54300409D60004009600040A9
:40198000106000409443004012600040F85100408460004085600040D9240000151E0000CD2400003924000081240000A128000080B584B000AF03460A46FB711346BB714E
:4019C0000023FB7306E0FB7B314A0121D154FB7B0133FB73FB7B002BF5D02E4AFB7913702D4B00221A702D4B00221A702C4B00221A702C4B00221A702B4B00221A702B4B25
:401A000000221A702A4B00221A702A4B4FF400021A60284B4FF080721A60264B4FF400121A60244B01221A60224B02221A60BB79002B02D0012B09D011E01F4A1E4B1B78A4
:401A4000DBB223F00103DBB2137011E01A4A1A4B1B78DBB243F00103DBB2137008E0164A154B1B78DBB243F00103DBB2137000BF124B03221A70124B80221A70012004F019
:401A8000BFFB104B04221A7000BF1037BD4680BD644A0020D8490020DE490020DC490020DD490020D9490020C4490020DB490020544A002000E100E0096000402860004097
:401AC000086000401260004080B483B000AF0023FB7106E0FB79144A0121D154FB790133FB71FB79002BF5D0104B00221A70104B00221A700F4B00221A700F4B00221A7056
:401B00000E4B00221A700E4B00221A700D4B00221A700D4B03221A700C4B80221A7000BF0C37BD4680BC7047644A0020DE490020DC490020DD490020D9490020C449002006
:401B4000DB490020544A0020286000400860004080B400AF034B1B78DBB21846BD4680BC704700BFDD49002080B483B000AF0023FB71084B1B78DBB2002B05D0054B1B784E
:401B8000FB71044B00221A70FB7918460C37BD4680BC7047DC49002080B483B000AF0346FB71FA79064913465B0013449B000B4401331B78DBB218460C37BD4680BC704701
:401BC000E849002080B485B000AF0346FB710023FB81FB79002B1CD0FB79082B19D8104AFB791B0113441B78DBB29BB203F00F03FB81FB891B029AB20949FB791B010B44B8
:401C000001331B78DBB29BB21343FB81FB89023BFB81FB8918461437BD4680BC704700BFFC5F0040B0B485B000AF03463960FB711346BB80FB79002B6DD0FB79082B6AD888
:401C4000B988FA79364813465B0013449B00034406331B889BB2C3F5007399420CD9FA792F4913465B0013449B000B4406331B889BB2C3F50073BB802A4CF979BB881B0A72
:401C80009BB2D8B2FA79264D13465B0013449B002B4403331B78DBB20343DAB20B0123441A70204AFB79B988C9B21B01134401330A461A703B68002B13D00023FB810CE0D6
:401CC0001948FB79FA8939680A4412781B01034408331A70FB890133FB81FA89BB889A42EED3FA790E4913465B0013449B000B44013300221A700B48F979FA79084C1346D0
:401D00005B0013449B00234405331B78DAB20B01034402331A7000BF1437BD46B0BC7047E8490020FC5F00407060004080B584B000AF03463960FB711346BB803B68002B92
:401D400030D0FB79002B2DD0FB79082B2AD8FB791846FFF737FF03461A46BB88934205D9FB791846FFF72EFF034600E0BB88BB800023FB810DE0FB893A6813440D49FA7913
:401D800012010A4408321278D2B21A70FB890133FB81FA89BB889A42EDD3FB79184600F00BF801E00023BB80BB8818461037BD4680BD00BF7060004090B482B000AF0346F1
:401DC000FB71FB79002B1CD0FB79082B19D8FA790E4913465B0013449B000B44013300221A700B48F979FA79084C13465B0013449B00234405331B78DAB20B01034402333D
:401E00001A7000BF0837BD4690BC7047E8490020FC5F004080B582B000AF374B1B78BB71BB7903F01003002B62D00123FB7197F90630002B12DABB7903F00F03012B02D096
:401E40000023FB711CE000F061F82C4B1B78DBB25BB2002B14DA0023FB7111E0BB7903F04003002B02D000F095F809E0BB7903F02003002B02D000F0B3F801E00023FB7132
:401E8000FB79002B34D01C4B1B78BB7197F90630002B2DDB1A4B1B78DAB21A4B1B78DBB21343BB71184ABB791370174B1B78DBB2BA799A421CD1114B1B78FB710E4B1B78F7
:401EC000DBB223F07F03BB71BB79002B0AD10A4B0A4A1278D2B21A70074B1B78DBB203F00F03FB71054B1B78DBB2FA799A42E2D100BF0837BD4680BD28600040C549002090
:401F0000DA490020554A00202960004080B582B000AF1D4B1B78FB711B4AFB7913701A4B1B78FB7197F90730002B03DA174AFB79137025E0022000F045FA154B1B78DBB29C
:401F400003F06003202B08D0402B0BD0002B0ED100F0ACFC0346FB710CE004F061F90346FB7107E001F0E0FB0346FB7102E00023FB7100BFFB79002B02D1044B03221A7054
:401F800000BF0837BD4680BD28600040C54900200060004080B500AF104B1B78DBB2062B19D801A252F823F0D71F0000D71F0000C51F0000D71F0000CB1F0000D71F000026
:401FC000D11F000000F0F8F806E000F0A7F903E000F0D2F900E000BF00BF80BDDE49002080B500AF124B1B78DBB2062B1DD801A252F823F02B2000002B20000011200000CD
:402000002B200000172000002B2000001D20000000F0D8F80AE000F027F907E0032000F0D1F9044B03221A7000E000BF00BF80BDDE490020C549002080B483B000AF0023D1
:40204000FB71294B1B78DBB29AB2284B1B889BB213449AB2254B1A8015E02549FB79254A52681278D2B2CA54224B5B680133214A5360FB790133FB711E4B1B889BB2013BAD
:402080009AB21C4B1A801B4B1B889BB2002B02D0FB79072BE1D9144B1B78DBB2082B02D0FB79002B0FD0144B1B78DBB283F07F03DB43DAB2104B1A70104B0F221A70104BAA
:4020C00002221A7005E00D4B02221A700C4B02221A700C4AFB791370034AFB79137000BF0C37BD4680BC7047544A00205A4A002000600040CC490020DA490020C5490020F1
:40210000DE490020554A002080B582B000AF164B1B889BB2002B02D100F02EF81EE0134B02221A70124B00221A7000F06BF9114BDB79DBB29BB21B029AB20E4B9B79DBB2CA
:402140009BB21343FB80084B1B889BB2FA889A4202D2054AFB881380FFF76EFF012318460837BD4680BD00BFCC490020DE490020DA4900200060004080B400AF094B02228A
:402180001A70094B80221A70084B0F221A70084B00221A70074B00221A7001231846BD4680BC7047DE490020DA490020C5490020544A0020554A002080B500AFFFF73CFF48
:4021C00000BF80BD80B500AF0A4B1B78DBB29AB2094B1B889BB213449AB2074B1A80074B00221A70012000F0EDF8054B03221A7000BF80BD544A00205A4A0020DE490020B3
:40220000C549002080B582B000AF124B04221A70114B80221A7000F0F5F8104BDB79DBB29BB21B029AB20D4B9B79DBB29BB21343FB800B4B1B889BB2FA889A4202D2084A15
:40224000FB881380074B0B221A70012318460837BD4680BDDE490020DA49002000600040CC490020C549002080B483B000AF0023BB71234B1B78DBB203F00F03DBB2023BEF
:40228000FB71FB799AB21F4B1B889BB213449AB21C4B1A8018E01C4B5B681C49BA798A5CD2B21A70184B5B680133174A5360BB790133BB71FB79013BFB71134B1B889BB2DA
:4022C000013B9AB2104B1A800F4B1B889BB2002B02D0FB79002BDED10D4AFB7913700D4B1B78DBB283F07F03DB43DAB2094B1A70094B0B221A7000BF0C37BD4680BC704786
:40230000296000405A4A0020CC49002000600040554A0020DA490020C549002080B500AF054B00221A70012000F04CF8034B03221A7000BF80BD00BFDE490020C5490020A9
:4023400080B400AF084B06221A70084B06221A70074B80221A70074B00221A7001231846BD4680BC704700BFDE490020C5490020DA490020554A002080B500AF0D4B1B7877
:40238000DBB2002B0AD00C4A0A4B1B78DBB263F07F03DBB21370074B00221A70074B00221A70012000F00EF8054B03221A7000BF80BD00BFC449002008600040DE490020F2
:4023C000C549002080B483B000AF0346FB710B4B9B68002B0CD0094B9B68FA791A70074B9B68074A128892B25A80044B00229A6000BF0C37BD4680BC704700BFCC4900207B
:402400005A4A002080B400AF094B00221A80094B9B68002B07D0074B9B6800221A70054B9B6800225A8000BFBD4680BC704700BF5A4A0020CC49002080B400AF0D4B012271
:402440001A700D4B9B7C0D4B1B7BDBB203F00303012B08D0094BDB7BDBB283F07F03DB43DAB2064BDA73054B01225A7300BFBD4680BC70470B600040FC5F0040E8490020EB
:4024800080B400AF0E4B02221A700E4B93F822300D4B1B7EDBB203F00303012B08D00A4BDB7EDBB283F07F03DB43DAB2064BDA76054B01225A7600BFBD4680BC704700BF4F
:4024C0000B600040FC5F0040E849002080B400AF00BFBD4680BC704780B500AFFFF7F4FA00BF80BD80B582B000AF0023FB71714B1B79BB716F4B1B78DBB25BB2002B6CDA70
:402500006C4B5B78DBB2013B052B00F2BE8001A252F823F07725000091250000BB2500008B2600008B2600002D250000614BDB78DBB2212B0CD100F0C7F85F4B1B889BB204
:40254000002B00F0A480FFF7DFFD0346FB719EE0584BDB78DBB2222B40F0998000F0F2F8554B1B889BB2002B00F09180FFF7CCFD0346FB718BE000F02DF94F4B1B889BB2E9
:40258000002B00F08680FFF7BFFD0346FB7180E0BB79002B7FD1474B9B78DBB2002B7AD1454B01221A80BB79444A1344424A5360FFF7AAFD0346FB716DE0BB79002B6CD1FC
:4025C0003D4B01221A80BB793D4A13443A4A5360FFF79AFD0346FB715FE0364B5B78DBB20A2B10D00B2B3DD0092B00D05CE000F0F1F8314B1B889BB2002B50D0FFF702FECD
:402600000346FB714BE0BB79002B4AD1294B9B78DBB2002B45D1BB79264AD278D1B2274AD154BB79254AD35CDAB2BB792549CB5CDBB29A4204D2BB79224A0021D1540CE0AC
:40264000BB79204AD35CDBB2012B06D9BB79BA791A498A5CD1B21B4AD154FFF771FE0346FB711EE0BB79002B1DD1124B9B78DBB2012B18D8BB790F4A9278D1B2104AD15421
:40268000FFF75EFE0346FB710DE000BF0CE000BF0AE000BF08E000BF06E000BF04E000BF02E000BF00E000BFFB7918460837BD4680BD00BF00600040CC4900205C4A002039
:4026C000644A0020604A002080B584B000AF194B1B78DBB2013BDBB2184600F075FEF860154B1B79FB72FB7A0233DB00FA681344FB60FB685B68FB60FB7A104AD35CDBB2BE
:40270000DB00FA681344FB60FB685B68FB60FB682033FB60FB685B687B607B681B78DBB29AB2074B1A80064A7B68536000BF1037BD4680BDDD49002000600040C849002099
:40274000CC49002080B584B000AF1E4B1B78DBB2013BDBB2184600F037FEF8601A4B1B79FB72FB7A0233DB00FA681344FB60FB685B68FB60FB7A154AD35CDBB2DB00FA6892
:402780001344FB60FB685B68FB60FB681833FB60FB685B687B607B6801331B78DBB29BB21B029AB27B681B78DBB29BB213439AB2074B1A807B680233054A536000BF1037F1
:4027C000BD4680BDDD49002000600040C8490020CC49002080B584B000AF2D4B00221A802C4B1B78DBB2013BDBB2184600F0ECFDF860294BDB78FB72274B1B79BB72BB7A76
:402800000233DB00FA681344FB60FB685B68FB60BB7A002B38D1BB7A204AD35CDBB2DB00FA681344FB60FB685B68FB60FB7A002B2AD0FB7A032B27D8FB7A03F10053013B8B
:40284000DB00FA681344FB60134B9B78FB72FB681B78FA7A9A4217D8FB685B687B60FA7A13465B0013449B001A467B6813447B607B685B68064A53607B681A88044B1A80AF
:402880007B689B68024A936000BF1037BD4680BDCC490020DD49002000600040C849002080B500AF00F05AFF00BF80BD80B586B000AF0023FB75A74B1B78FB7100233B61DB
:4028C000A54B00221A8097F90730002B80F2EC80A04B5B78DBB20A2B00F2008201A252F823F000BFFF290000DD2C0000DD2C0000DD2C0000DD2C0000DD2C0000112900001A
:40290000DD2C0000732A0000DD2C0000892A0000904BDB78DBB2012B0ED100F07DFDB860BB685B688C4A53608B4B12221A80FFF7EBFB0346FB75D3E1864BDB78DBB2022BB3
:4029400025D1844B9B78DBB2184600F03DFDB860BB68002B00F0C481BB685B687E4A53607D4B5B6803331B78DBB29BB21B029AB2794B5B6802331B78DBB29BB213439AB20C
:40298000754B1A80FFF7C0FB0346FB75A8E1714BDB78DBB2032B2DD10023FB736F4B3B6109E03B691B78BB71BB793A6913443B61FB7B0133FB73674B9B78DBB2FA7B9A424A
:4029C00004D23B691B78DBB2002BEAD13B691B78DBB2002B00F084813B691B78DBB29AB25D4B1A805C4A3B695360FFF78DFB0346FB7575E103F014FC0346FB7570E1FB7916
:402A000003F00303002B20D0022B00D030E0524B02221A804F4B1B79DBB203F07F02504913465B0013449B000B4402331B78DAB24C4B1A704B4B00225A70474B494A5A6087
:402A4000FFF762FB0346FB7512E0434B02221A80454B1B78DAB2434B1A70424B00225A703D4B404A5A60FFF74FFB0346FB7500BF3DE1394B01221A80374B3C4A5A60FFF731
:402A800043FB0346FB7532E1334B01221A80314B1B79DBB21A46364B13442F4A5360FFF733FB0346FB7522E12A4B5B78DBB2013B0A2B00F2178101A252F823F0C12B000034
:402AC000E52C00004F2C0000E52C0000E92A0000E52C0000E52C0000E52C0000FD2A0000E52C00007D2B00001A4B9B78DAB2214B1A70FFF725FC0346FB75F8E0154B9B78FE
:402B00007B717B79002B06D07B79013BDBB2184600F05AFCB8607B79002B02D0BB68002B03D17B79002B40F0DF80104B1B78DBB27A799A4208D00D4A7B7913700E4B01220E
:402B40001A70012000F082F9FFF7FAFB0346FB75CAE000BF00600040CC490020B08D0000E84900209881FF1FDB490020DD490020C8490020C4490020DC49002000F09CFDE2
:402B80000346002B00F0B2805B4B1B793B715A4B1B79DAB2594B1A703B79594AD35CDAB23B795849CB5CDBB29A4204D0564B01221A7000F0DBFAFFF7C3FB0346FB7595E0E6
:402BC000FB7903F00303012B20D0012B0CD3022B00D03BE0484B9B78DBB2002B31D100F0C7FC0346FB752CE0434B9B78DBB2012B29D1464B1B78DBB223F00203DAB2434B1A
:402C00001A70FFF79DFB0346FB751CE03A4B1B79DBB2002B19D1384B9B78DBB2DB43DBB2354A1279D2B211461046394A125CD2B21340DAB2364B5A54FFF782FB0346FB7554
:402C400003E000BF53E000BF51E000BF4FE0FB7903F00303012B20D0012B0CD3022B00D03BE0254B9B78DBB2002B31D100F00CFC0346FB752CE0204B9B78DBB2012B29D1CA
:402C8000224B1B78DBB243F00203DAB21F4B1A70FFF756FB0346FB751CE0174B1B79DBB2002B19D1144B9B78DBB2DB43DBB2124A1279D2B211461046154A125CD2B21340D5
:402CC000DAB2134B5A54FFF73BFB0346FB7503E000BF0CE000BF0AE000BF08E000BF06E000BF04E000BF02E000BF00E000BFFB7D18461837BD4680BD00600040D9490020EB
:402D0000584A0020C8490020DC490020DB490020E049002090B482B000AF0123FB7180E0464AFB791B0113440C221A70FA79444913465B0013449B000B4405331B78DBB23D
:402D4000002B1CD0FA793E4913465B0013449B000B4404331B78DBB25BB2002B07DA394AFB791B01134402330C221A700EE0354AFB791B011344023308221A7006E0314AE8
:402D8000FB791B011344023380221A702B48F979FA792B4C13465B0013449B00234406331B889BB2DAB20B01034406331A702348F979FA79224C13465B0013449B00234459
:402DC00006331B889BB21B0A9BB2DAB20B01034407331A701948F979FA79194C13465B0013449B00234406331B889BB2DAB20B01034404331A701148F979FA79104C134621
:402E00005B0013449B00234406331B889BB21B0A9BB2DAB20B01034405331A70FB790133FB71FB79082B7FF67BAF074BFF221A7000BF0837BD4690BC704700BF7060004078
:402E4000E8490020FC5F00400A60004080B588B000AF0346FB7100237B830023FB7747E0FA7FA94913465B0013449B000B4400221A70FA7FA44913465B0013449B000B44A7
:402E8000023300221A70FA7F9F4913465B0013449B000B44033300221A70FA7F9A4913465B0013449B000B44083300221A80FA7F954913465B0013449B000B440A33002206
:402EC0001A70FA7F904913465B0013449B000B44013300221A70FA7F8B4913465B0013449B000B44053300221A70FB7F0133FB77FB7F082BB4D9FB79002B10D000237B770D
:402F00000AE07B7F814A0021D1547B7F804A0021D1547B7F01337B777B7F002BF1D07D4B1B78DBB2002B00F01A817A4B1B78DBB2013BDBB2184600F047FA38613B695B68B1
:402F4000FB60FB6807331B7803F04003002B08D0714B1B78DBB243F00103DAB26E4B1A7007E06D4B1B78DBB223F00103DAB26A4B1A703B6908333B613B691B78FB770123C2
:402F80007B7794E03B695B687B610023BB7786E07A7F7B699B7803F07F039A4279D17A7F594913465B0013449B000B4408331B889AB27B699B889A420BD27A7F7B699888AB
:402FC000514913465B0013449B000B44083302461A807B691B781A464C4B9B5CDAB27B695B789A4255D17A7F7B699878464913465B0013449B000B44043302461A707A7F08
:403000007B69D878404913465B0013449B000B4402461A707B69DB7803F00303FB727B699B785BB2002B1ADA7A7FFB7A012B01D1072000E00D20344913465B0013449B0089
:403040000B44053302461A707A7F2F4913465B0013449B000B44013301221A7019E07A7FFB7A012B01D1052000E00920264913465B0013449B000B44053302461A707A7FB6
:40308000214913465B0013449B000B44013300221A707B6908337B61BB7F0133BB77BA7FFB7F9A42FFF474AF7B7F01337B777B7F082B7FF667AF3B695B687B6100237B7761
:4030C00014E07B699B7803F07F027B6918780E4913465B0013449B000B440A3302461A707B6908337B617B7F01337B777A7FFB7F9A42E6D300F0A2F90246084B1A600023BC
:403100007B830123FB7725E0E8490020C8490020584A0020DD490020DB490020E4490020FA7F114913465B0013449B000B4406337A8B1A80FA7F0C4913465B0013449B00C7
:403140000B4408331B889AB27B8B13447B83FB7F0133FB77FB7F082BE2D9FFF7DBFD00BF2037BD4680BD00BFE849002090B585B000AF8F4B1B78DBB2002B00F015818C4B14
:403180001B78DBB2013BDBB2184600F01DF978607B6808337B607B681B78FB707B685B68BB60844B1B78BB700023FB73F7E0BB681B78BA789A4240F0EC80BB787E4AD35CD0
:4031C000DAB2BB685B789A4240F0E380BB689B7803F07F037B70BB68DB7803F003033B707A78764913465B0013449B000B44033300221A707A78BB689878704913465B0014
:4032000013449B000B44043302461A707A78BB68D8786A4913465B0013449B000B4402461A707A78BB689888644913465B0013449B000B44083302461A80BB689B785BB22E
:40324000002B1ADA7A783B78012B01D1072000E00D205A4913465B0013449B000B44053302461A707A78554913465B0013449B000B44013301221A7019E07A783B78012B86
:4032800001D1052000E009204C4913465B0013449B000B44053302461A707A78474913465B0013449B000B44013300221A70444A7B781B011344023301221A7040487978D4
:4032C0007A783E4C13465B0013449B00234408331B889BB21B0A9BB2DAB20B0103441A70374879787A78354C13465B0013449B00234408331B889BB2DAB20B010344013311
:403300001A70304879787A782C4C13465B0013449B00234406331B889BB2DAB20B01034406331A70274879787A78244C13465B0013449B00234406331B889BB21B0A9BB2EE
:40334000DAB20B01034407331A701E4879787A781A4C13465B0013449B00234406331B889BB2DAB20B01034404331A70154879787A78124C13465B0013449B002344063341
:403380001B889BB21B0A9BB2DAB20B01034405331A70BB680833BB60FB7B0133FB73FA7BFB789A42FFF403AF00BF1437BD4690BDDD490020D9490020C8490020E8490020AC
:4033C000FC5F00407060004080B485B000AF0346FB710F4B1B78DBB20E4ADB0013445B68FB60FB681033FB60FB681B78FA799A4202D30023FB6005E0FB79DB00FA681344AD
:403400005B68FB60FB6818461437BD4680BC7047D84900206C8F000080B400AF054B1B78DBB2054ADB0013445B681846BD4680BC704700BFD84900206C8F000080B584B0E1
:4034400000AF104B1B78DBB2013BDBB21846FFF7BBFFB860BB68002B0DD0BB685B681B79FB71FB790233DB00BA681344BB60BB685B68FB6001E00023FB60FB681846103762
:40348000BD4680BDDD49002080B582B000AF0023FB71344B1B79DBB203F07F03BB71BB79002B5AD0BB79082B57D8BA79B9792E480B465B000B449B00034402331B78DBB274
:4034C00043F00103D8B2284913465B0013449B000B44023302461A70BA79234913465B0013449B000B44033300221A70BA79B9791D480B465B000B449B00034401331B78BA
:40350000DBB243F00203D8B2174913465B0013449B000B44013302461A70BA79124913465B0013449B000B4404331B78DBB25BB2002B07DA0D4ABB791B01134402338D220C
:403540001A7006E0094ABB791B011344023389221A70FEF7F5FE0346FB71FB7918460837BD4680BD00600040E8490020FC5F004080B582B000AF0023FB714C4B1B79DBB2A0
:4035800003F07F03BB71BB79002B00F08A80BB79082B00F28680BA79B97945480B465B000B449B00034402331B78DBB223F00103D8B23F4913465B0013449B000B4402333B
:4035C00002461A70BA793A4913465B0013449B000B44033300221A70364ABB791B0113447F221A70BA79B97931480B465B000B449B00034401331B78DBB223F00203D8B269
:403600002B4913465B0013449B000B44013302461A70BA79264913465B0013449B000B4404331B78DBB25BB2002B1BDABA79204913465B0013449B000B4401331B78DBB21B
:40364000012B07D11B4ABB791B01134402330C221A7022E0174ABB791B01134402330D221A701AE0BA79124913465B0013449B000B4401331B78DBB2012B07D10D4ABB79F5
:403680001B011344023308221A7006E0094ABB791B011344023309221A70FEF751FE0346FB71FB7918460837BD4680BD00600040E8490020FC5F004080B584B000AF0023D3
:4036C000FB73154B1B79BB73144B1B78DBB2013BDBB21846FFF778FEB860BB685B681B79FB71BA7BFB799A4202D9BB7B012B0ED8BB7BBA7B0A498A5CD1B20A4AD154BB7BAC
:40370000054A9278D1B2064AD1540123FB73FB7B18461037BD4680BD00600040DD490020C8490020584A002080B483B000AF0023FB71094B1B78DBB25BB2002B06DA064BF0
:403740005B78DBB2012B00D000E000BFFB7918460C37BD4680BC70470060004080B400AF054B1B78DBB203F040039B09DBB21846BD4680BC704700BF8F45004080B483B05B
:4037800000AF134B7F221A70124B80221A707F23FB710CE0FB79DB0003F1804303F5F043FA79013AD2B21A70FB79013BFB71FB79002BEFD1FB79DB0003F1804303F5F043B5
:4037C00000221A7000BF0C37BD4680BC704700BFD580FF1FD480FF1F80B485B000AF03460A46FB711346BB710123FB60FB79172B2FD8BB79002B0ED0FB791A01184B13441D
:40380000FA791101164A0A441278D2B242F02002D2B21A700DE0FB791A01114B1344FA7911010F4A0A441278D2B222F02002D2B21A70FB791A010A4B1344FA791101084A28
:403840000A441278D2B242F00102D2B21A700023FB60FB6818461437BD4680BC704700BF1070004080B485B000AF0346FB710123FB60FB79172B1DD8FB791A01104B134472
:40388000FA7911010E4A0A441278D2B222F00102D2B21A70FB791A01094B1344FA791101074A0A441278D2B222F02002D2B21A700023FB60FB6818461437BD4680BC70477E
:4038C0001070004080B485B000AF03460A46FB711346BB710123FB60FB79172B1BD8FB791A01104B13441B78DBB223F00E03FB72FB791A010B4B1344BA795200D2B252B203
:4039000002F00E0251B297F90B200A4352B2D2B21A700023FB60FB6818461437BD4680BC704700BF1070004080B485B000AF0346FB710B46BB8013467B800123FB60BB88FA
:4039400041F6FF72934202D14FF40053BB807B8841F6FF72934202D14FF400537B80FB79172B17D8FB79DB0003F1804303F5EC430433BB60BB68BA881A80FB79DB0003F1DC
:40398000804303F5EC430633BB60BB687A881A800023FB60FB6818461437BD4680BC704780B485B000AF03460A46FB711346BB710123FB60FB79172B07D8FB791A01064BF4
:4039C0001344BA795A720023FB60FB6818461437BD4680BC704700BF1070004090B484B000AF0446084611461A462346FB710346BB710B467B7113463B710123FB60FB797D
:403A0000172B34D8FB79DB0003F1804303F5EC43BA7902F07F02D1B27A79D201D2B20A43D2B21A70FB79DB0003F1804303F5EC433A7E1201D1B23A7902F00F02D2B20A433B
:403A4000D2B25A70FB79DB0003F1804303F5EC433A7F02F00F02D2B29A70FB79DB0003F1804303F5EC430022DA700023FB60FB6818461037BD4690BC704700BF80B582B036
:403A800000AFFF23FB7102F0C3FB0346BB71104B1B78182B12D90F4B1B78FB710C4B1B78013BDAB20A4B1A70FB79DB0003F1804303F5F0431B78DAB2064B1A70BB791846E1
:403AC00002F0AAFBFB7918460837BD4680BD00BFD480FF1FD580FF1F90B484B000AF0446084611461A462346FB710346BB800B46BB711346FB700123FB6097F90730002BB9
:403B000023DBBB8823F47F6323F00F039BB2002B1BD1FB79DB0003F1804303F5F043BB60BB68BA881A80FB79DB0003F1804303F5F043BA799A70FB79DB0003F1804303F50B
:403B4000F043FA78DA700023FB60FB6818461037BD4690BC704700BF80B485B000AF0346FB710B46BB8013467B800123FB6097F90730002B17DBFB79DB0003F1804303F5FD
:403B8000F0430433BB60BB68BA881A80FB79DB0003F1804303F5F0430633BB60BB687A881A800023FB60FB6818461437BD4680BC704700BF80B483B000AF0346FB7101BE74
:403BC00000BF0C37BD4680BC704700BF80B582B000AF786008E00C4B1B68184602F010FB7B68A3F500437B607B68B3F5004FF2D8064B1B687A6802FB03F3184602F000FBD2
:403C000000BF0837BD4680BDE880FF1FE080FF1F80B582B000AF0346FB80FB88054A127802FB03F3184602F0EBFA00BF0837BD4680BD00BFE480FF1F80B483B000AF034606
:403C40000A46FB711346BB711D491D4B1B78DBB223F00303DAB2FB7903F00303DBB21343DBB20B70164A164B1B78DBB263F07F03DBB21370124A124B1B78DBB203F07F0304
:403C8000DBB213700E49BB795B01DBB203F06003DAB20B4B1B78DBB223F06003DBB21343DBB20B70064A064B1B78DBB243F01003DBB2137000BF0C37BD4680BC704700BFF9
:403CC0008343004080B400AF034B01221A7000BFBD4680BC704700BF8443004080B584B000AF03463960FB710F4B1B68FB60FB791F2B02D90020FFF75DFFFB7903F01F0333
:403D000010339B00FA6813441B68BB60FB7903F01F0310339B00FA6813443A681A60BB6818461037BD4680BD08ED00E080B582B000AF03460A46FB711346BB71BB79072B2F
:403D400002D90020FFF736FFFB791F2B02D90020FFF730FFFB7903F01F0303F1604303F56443BA795201D2B21A7000BF0837BD4680BD00BF80B500AF064B1B78002B04D127
:403D800000F00AF8034B01221A7000F03BF800BF80BD00BF9A81FF1F80B582B000AF164B1B78DBB223F03F03FB71134AFB7943F02203DBB21370114A104B1B78DBB243F065
:403DC0000103DBB213700E4A0D4B1B78DBB243F00103DBB2137040F65F1000F033F840F65F1000F04FF84FF4966000F05BF800BF0837BD4680BD00BF7B6400409A64004026
:403E00009B64004080B400AF054A054B1B78DBB263F07F03DBB2137000BFBD4680BC70477B64004080B400AF054A054B1B78DBB203F07F03DBB2137000BFBD4680BC70470C
:403E40007B64004080B483B000AF0346FB80044AFB88138000BF0C37BD4680BC704700BF1468004080B400AF044B1B78044B1B889BB21846BD4680BC704700BF1A6400409D
:403E8000B468004080B483B000AF0346FB80044AFB88138000BF0C37BD4680BC704700BF9468004080B483B000AF0346FB80044AFB88138000BF0C37BD4680BC704700BF80
:403EC0005468004080B483B000AF044B1B78FB71FB7918460C37BD4680BC70477B64004080B483B000AF0346FB71044AFB79137000BF0C37BD4680BC704700BF7B64004052
:403F000080B400AF034B1B889BB21846BD4680BC704700BF9468004080B500AFFFF7F0FF03461A46074B9A80FFF79CFF03461A46044B5A80FFF7C6FF03461A46014B9A7115
:403F400000BF80BD9C81FF1F80B500AF084B9B881846FFF797FF064B5B881846FFF772FF034B9B791846FFF7BBFF00BF80BD00BF9C81FF1F80B500AF094B1B78DBB25BB202
:403F8000002B03DA074B01221A7002E0054B00221A70FFF747FFFFF7BFFF00BF80BD00BF7B6400409C81FF1F80B500AFFFF7CCFF034B1B78002B01D0FFF724FF00BF80BD80
:403FC0009C81FF1F80B582B000AF786000F04EF8786800F009F8012000F018F800F028F800BF0837BD4680BD80B485B000AF7860054B1B68FB60FB6850337A681A6000BF03
:404000001437BD4680BC704708ED00E080B483B000AF0346FB71054AFB795B01DBB2137000BF0C37BD4680BC704700BF04E400E080B400AF034B10221A6000BFBD4680BC16
:40404000704700BF00E100E080B400AF064B1B6803F01003002B01D0012300E000231846BD4680BC704700BF00E100E080B400AF034B10221A6000BFBD4680BC704700BF04
:4040800080E100E080B582B000AF786000F03CF8786800F009F8022000F018F800F028F800BF0837BD4680BD80B485B000AF7860054B1B68FB60FB6848337A681A6000BF55
:4040C0001437BD4680BC704708ED00E080B483B000AF0346FB71054AFB795B01DBB2137000BF0C37BD4680BC704700BF02E400E080B400AF034B04221A6000BFBD4680BC64
:40410000704700BF00E100E080B400AF034B04221A6000BFBD4680BC704700BF80E100E080B500AF032000F063F800BF80BD00BF80B400AF0D4A0D4B1B78DBB243F060036D
:40414000DBB213700A4A0A4B1B78DBB243F00203DBB21370074A074B1B78DBB243F00203DBB2137000BFBD4680BC704777580040A4430040B443004080B500AF064B1B7829
:40418000002B04D1044B01221A70FFF7C9FFFFF7CFFF00BF80BD00BFA481FF1F80B400AF104A104B1B78DBB223F00203DBB213700D4A0D4B1B78DBB223F00203DBB21370AC
:4041C000084B1B78DBB2002B07D1084A074B1B78DBB223F06003DBB2137000BFBD4680BC704700BFA4430040B44300407758004080B483B000AF0346FB710C4A0B4B1B7814
:40420000DBB223F00303DBB213700849074B1B78DAB2FB7903F00303DBB21343DBB20B7000BF0C37BD4680BC704700BF5A58004080B400AF00BFBD4680BC704780B400AF8A
:4042400000BFBD4680BC704780B500AF094B1B78DBB203F00203002B05D0074B01221A70FFF79CFF02E0044B00221A70FFF7E0FF00BF80BDA4430040A881FF1F80B500AFA9
:40428000FFF7DCFF034B1B78012B01D1FFF750FF00BF80BDA881FF1F80B500AF094B02221A70094B0C221A70084B01221A70002000F07AF8032000F099F8022000F058F84C
:4042C00000BF80BD08580040095800400A58004080B400AF0D4A0D4B1B78DBB243F00403DBB213700A4A0A4B1B78DBB243F00403DBB21370074A074B1B78DBB263F07F0338
:40430000DBB2137000BFBD4680BC7047A9430040B94300407758004080B500AF064B1B78002B04D1044B01221A70FFF7B5FFFFF7CFFF00BF80BD00BFA981FF1F80B400AF29
:40434000094A094B1B78DBB223F00403DBB21370064A064B1B78DBB223F00403DBB2137000BFBD4680BC7047A9430040B943004080B485B000AF0346FB710A4B1B78DBB202
:4043800023F00303FB73FB7903F00303DAB2FB7B1343FB73034AFB7B137000BF1437BD4680BC70470958004080B483B000AF0346FB71FB79072B11D80B4A0B4B1B78DBB237
:4043C00023F07003DBB213700749074B1B78DAB2FB791B01DBB21343DBB20B7000BF0C37BD4680BC704700BF0A58004080B483B000AF0346FB71FB79032B11D80B4A0B4B91
:404400001B78DBB223F00C03DBB213700749074B1B78DAB2FB799B00DBB21343DBB20B7000BF0C37BD4680BC704700BF0A58004080B400AF00BFBD4680BC704780B400AF9B
:4044400000BFBD4680BC704780B500AF094B1B78DBB203F00403002B05D0074B01221A70FFF76CFF02E0044B00221A70FFF7E0FF00BF80BDA9430040AC81FF1F80B500AFCC
:40448000FFF7DCFF034B1B78012B01D1FFF720FF00BF80BDAC81FF1F80B500AF064B00221A70064B00221A70042000F071F8002000F04EF800BF80BD2058004021580040D2
:4044C00080B400AF094A094B1B78DBB243F00103DBB21370064A064B1B78DBB243F00103DBB2137000BFBD4680BC7047A8430040B843004080B500AF074B1B78002B04D1DF
:40450000FFF7CAFF044B01221A70FFF7D9FF802000F05EF800BF80BDB081FF1F80B400AF094A094B1B78DBB223F00103DBB21370064A064B1B78DBB223F00103DBB2137008
:4045400000BFBD4680BC7047A8430040B843004080B483B000AF0346FB710C4A0B4B1B78DBB223F00203DBB213700849074B1B78DAB2FB7903F00203DBB21343DBB20B7048
:4045800000BF0C37BD4680BC704700BF2058004080B582B000AF0346FB710C4A0B4B1B78DBB223F00C03DBB213700849074B1B78DAB2FB7903F00C03DBB21343DBB20B70A0
:4045C00000F016F800BF0837BD4680BD2058004080B483B000AF0346FB71044AFB79137000BF0C37BD4680BC704700BF805B004080B483B000AF0B4B1B78DBB203F00C0357
:404600009B08DBB20633FB71074AFB7903F1924303F590731B78DBB2137000BF0C37BD4680BC7047205800400846004080B400AF074B1B78DBB203F02003002B04D1054B80
:404640001B78DAB2044B5A7000BFBD4680BC704721580040805B0040B481FF1F80B400AF154B1B78DBB203F02003002B1FD1134B1B78DBB203F00803002B14D00F4A0F4B54
:404680001B78DBB223F00803DBB213700C4B0D4A52781A70094A094B1B78DBB243F00803DBB2137003E0064B064A52781A7000BFBD4680BC704700BF21580040875A00406F
:4046C000805B0040B481FF1F80B500AF094B1B78DBB203F00103002B03D0074B01221A7002E0054B00221A70FFF718FFFFF79EFF00BF80BDA8430040B481FF1F80B500AF24
:40470000FFF7ACFF064B1B78012B07D1FFF7D8FE044B1B78DBB21846FFF75AFF00BF80BDB481FF1F805B004080B582B002AF374B01221A70364B00221A70102000F000FE0C
:40474000102000F0E3FE07211D20FFF7EFFA314B04221A70304B00221A70304B00221A702F4A2F4B1B78DBB243F01803DBB213702C4B00221A702C4B00221A702B4B00222B
:404780001A702B4B0A221A702A4B00221A702A4B00221A70294B12221A70294B13221A70284B00221A70284B14221A70012300930C234FF4004248F65C71052000F09AFB2A
:4047C000022300930C234FF4004248F6B651042000F090FB1D4A0D4B1B78DBB2013B1C499B000B449B7813701A4A084B1B78DBB2013B174931F823301380044B1B78DBB278
:40480000184600F017FA00BFBD4680BDEC80FF1FB881FF1F96580040975800409E580040075B004093580040885B0040895B00408058004081580040835800408858004026
:40484000895800408D580040014E00400E4E0040BC81FF1F0C4E004080B582B000AF01F0D7FC0346FB71444B1B78BB71434A434B1B78DBB243F00103DBB213703F4A3F4B60
:404880001B78DBB243F01003DBB213703C4A3C4B1B78DBB243F00103DBB21370384A384B1B78DBB243F01003DBB21370354A354B1B78DBB243F00203DBB21370324A324B33
:4048C0001B78DBB243F00203DBB213702F4A2F4B1B78DBB243F00303DBB213700320FFF797F9284A274B1B78DBB223F00203DBB21370254A244B1B78DBB223F00203DBB27C
:404900001370234A224B1B78DBB243F00603DBB21370204B7A221A701F4A1F4B1B78DBB243F00103DBB213701C4A1C4B1B78DBB243F00103DBB21370194A194B1B78DBB2C8
:4049400043F00103DBB21370164A164B1B78DBB243F00103DBB21370134B4FF000521A60124B4FF000521A60FB79184601F054FC00BF0837BD4680BDEC80FF1FAA430040EF
:40498000BA430040F8460040F9460040915800407758004082580040A1430040B1430040A2430040B243004080E200E000E100E080B500AF084B1B78002B09D1074B1B7802
:4049C000DBB2002B01D1FFF7AFFE034B01221A70FFF742FF00BF80BDBA81FF1FBB81FF1F80B582B000AF01F013FC0346FB714D4A4C4B1B78DBB223F00103DBB213704A4AD5
:404A0000494B1B78DBB243F00403DBB21370474A464B1B78DBB243F00203DBB21370444A434B1B78DBB243F00203DBB21370414A404B1B78DBB223F00303DBB213703E4A83
:404A40003D4B1B78DBB223F00803DBB213700320FFF7DEF8354A354B1B78DBB223F00203DBB21370324A324B1B78DBB223F00203DBB21370314A314B1B78DBB223F01003AC
:404A8000DBB213702D4A2D4B1B78DBB223F00103DBB213702A4A2A4B1B78DBB223F00103DBB21370264A264B1B78DBB223F01003DBB21370234A234B1B78DBB223F0060332
:404AC000DBB21370204A204B1B78DBB223F00103DBB213701D4A1D4B1B78DBB223F00103DBB213701A4A1A4B1B78DBB223F00803DBB21370174A174B1B78DBB223F0010363
:404B0000DBB21370144A144B1B78DBB223F00103DBB21370FB79184601F07EFB00BF0837BD4680BD004E0040014E0040F8460040F94600409158004092580040AA4300404D
:404B4000BA43004077580040A1430040B143004082580040A2430040B243004080B485B000AF0346FB710B4B1B78DBB223F00C03FB73FB799B00DBB203F00C03DAB2FB7BAA
:404B80001343FB73034AFB7B137000BF1437BD4680BC70479B58004080B400AF054A054B1B78DBB243F00103DBB2137000BFBD4680BC7047004E004080B483B000AF174B14
:404BC0001B78DBB203F003037B717B79012B03D8134B1B88FB8011E0114B1B78DBB2FB80104B1B78DBB29BB21B029AB2FB881343FB807B79032B01D10B4B1B780B4B1B7806
:404C0000DBB2002B02D00A4B00221A70B7F9063018460C37BD4680BC704700BF144E0040104E0040114E0040124E0040B981FF1FB881FF1F80B582B000AF0346FB716A4BFF
:404C400000221A70FB79012B63D1684B38221A70674B06221A70674B09221A70664B00221A70664B00221A70654B1F221A70654B00221A70644B00221A70644B00221A700B
:404C8000634B01221A70634B14221A70624B04221A70624B09221A70614B00221A70614B22221A70604B24221A70604B01221A705F4B02221A705F4B22221A705E4B282204
:404CC0001A705E4BEB221A70442000F0CBF95C4B58221A705B4B00221A705B4B01221A705A4B01221A705A4B00221A70594B0A221A70594B4FF47A721A600121032000F003
:404D000061FA01210E2000F043FB54491D20FEF7E5FFFB79022B63D1344B38221A70344B06221A70334B09221A70334B00221A70324B00221A70324B1F221A70314B002212
:404D40001A70314B00221A70304B00221A70304B01221A702F4B14221A702F4B09221A702E4B0A221A702E4B00221A702D4B11221A702D4B12221A702C4B01221A702C4B6F
:404D800002221A702B4B22221A702B4B28221A702A4BEB221A70442000F064F9284B58221A70284B00221A70274B05221A70274B01221A70264B00221A70264B0A221A70DE
:404DC000254B4FF4FA621A600121032000F0FAF901210E2000F0DCFA21491D20FEF77EFF00BF0837BD4680BDB981FF1F004E0040024E0040034E0040044E0040054E004069
:404E0000064E0040084E0040094E00400A4E0040144E0040845800408558004086580040875800408A5800408B5800408C5800408E5800408F5800409058004091580040FA
:404E400094580040955800409A5800409B5800409C5800409D5800406C4A0020AD510000B951000080B582B000AF03460A46FB711346BB71FB79002B29D0FB79022B26D856
:404E8000164B1B78002B02D1154B01221A70154AFB791370FFF7A4FDFB791846FFF7CAFE114AFB79013B11499B000B449B7813700F4AFB79013B0D4931F823301380BB79EF
:404EC000012B07D1FFF774FDFFF766FE02E00020FEF770FE00BF0837BD4680BDBA81FF1FBB81FF1FEC80FF1F0E4E0040BC81FF1F0C4E004090B587B000AF04460846114662
:404F00001A462346FB710346BB800B467B801346BB7197F82830002B00F08B8097F82830022B00F28680FB79013B092B4AD801A252F823F05D4F0000C54F0000C54F0000F4
:404F40005D4F0000C54F0000C54F0000774F0000914F0000C54F0000AB4F0000BB790F2B04D9374B1B78DBB2FB752EE0354B1B78DBB2FB7529E0BB790F2B04D9324B1B78CA
:404F8000DBB2FB7521E0314B1B78DBB2FB751CE0BB790F2B04D92E4B1B78DBB2FB7514E02C4B1B78DBB2FB750FE0BB790F2B04D9294B1B78DBB2FB7507E0284B1B78DBB2E4
:404FC000FB7502E00023FB7500BFBA8897F917305B0113443B617B883A6902FB03F3FB60FB68DB0BBB82BB790D2B12D8BA8ABB79C3F10E0342FA03F3BB8297F82830013B06
:40500000BA790132D1B2164A9B0013440A469A7007E097F82830013B114A9B0013440F229A7097F82830013B0D49BA8A21F8232002E00020FEF7BEFD00BF1C37BD4690BD1C
:40504000180100491C010049190100491D0100491A0100491E0100491B0100491F010049BC81FF1F80B584B000AF0346FB7101F0CFF80346FB73174A164B1B78DBB243F058
:405080000303DBB21370144A134B1B78DBB243F00303DBB21370114AFB7913700320FEF7B7FD0C4A0B4B1B78DBB223F00303DBB21370094A084B1B78DBB223F00303DBB236
:4050C0001370FB7B184601F0A7F800BF1037BD4680BD00BFF8460040F94600409258004080B400AF044B1B78DAB2044B5A7000BFBD4680BC704700BF004E0040F080FF1FA3
:4051000080B400AF034B044A52781A7000BFBD4680BC7047004E0040F080FF1F80B500AF144B1B78DBB203F00103002B1AD0114B1B78DBB203F01003002B13D00E4B012250
:405140001A700E4B1B78DBB203F00103002B06D0094B1B7843F00203DAB2074B1A70FFF73FFC02E0044B00221A70FFF7B9FF00BF80BD00BFAA430040F080FF1F004E0040ED
:4051800080B500AFFFF7BCFF074B1B78002B09D0FFF762FB044B1B7803F00203002B01D0FFF7FAFC00BF80BDF080FF1F80B400AF00BFBD4680BC704780B400AF00BFBD4695
:4051C00080BC704780B584B000AF03460A46FB8013467B7100F0CEF80346FB7300F0A4F80346BB81FA88BB899A4200F08880464B1B78DBB203F00103FB72FB7B002B20D18C
:40520000BB89002B02D0FB88002B1AD1BB89002B0BD13E4AFB8813803D4A3D4B1B78DBB223F04003DBB2137069E0394A384B1B78DBB243F04003DBB21370344AFB8813808D
:405240005DE0FB7A002B33D0324B00221A70324B01221A70314B00221A70314A304B1B78DBB203F07F03DBB21370294B1B78DBB203F00803002B02D0FB88002B18D1294A9F
:40528000BB891380234B07221A7000BF214B1B78DBB203F00103002BF8D11B4A1A4B1B78DBB223F00103DBB213701A4B00221A70154B1B78DBB203F00103002B13D0194AB6
:4052C000FB881380134A7B79002B01D0032300E00123137000BF0F4B1B78DBB203F00103002BF8D10BE0094AFB8813800649064B1B78DAB2FB7A1343DBB20B70FFE700BFEF
:405300001037BD4680BD00BFA24300408040004082400040014000401040004014400040084000400240004080B400AF034B1B889BB21846BD4680BC704700BF804000401D
:4053400080B483B000AF0346FB710949084B1B78DBB25AB297F9073023F007035BB213435BB2DBB20B7000BF0C37BD4680BC70478240004080B400AF044B1B78DBB203F0F6
:405380000703DBB21846BD4680BC70478240004080B584B000AF03460A46FB8013467B7100F0CEF80346FB7300F0A4F80346BB81FA88BB899A4200F08880464B1B78DBB2C6
:4053C00003F00103FB72FB7B002B20D1BB89002B02D0FB88002B1AD1BB89002B0BD13E4AFB8813803D4A3D4B1B78DBB223F04003DBB2137069E0394A384B1B78DBB243F0BD
:405400004003DBB21370344AFB8813805DE0FB7A002B33D0324B00221A70324B01221A70314B00221A70314A304B1B78DBB203F07F03DBB21370294B1B78DBB203F00803FD
:40544000002B02D0FB88002B18D1294ABB891380234B07221A7000BF214B1B78DBB203F00103002BF8D11B4A1A4B1B78DBB223F00103DBB213701A4B00221A70154B1B78E2
:40548000DBB203F00103002B13D0194AFB881380134A7B79002B01D0032300E00123137000BF0F4B1B78DBB203F00103002BF8D10BE0094AFB8813800649064B1B78DAB2B0
:4054C000FB7A1343DBB20B70FFE700BF1037BD4680BD00BFA14300400041004002410040014000401440004010400040084000400240004080B400AF034B1B889BB2184698
:40550000BD4680BC704700BF0041004080B483B000AF0346FB710949084B1B78DBB25AB297F9073023F007035BB213435BB2DBB20B7000BF0C37BD4680BC704702410040C2
:4055400080B400AF044B1B78DBB203F00703DBB21846BD4680BC70470241004080B500AF064B00221A70064B00221A70042000F071F8002000F04EF800BF80BD245800400F
:405580002558004080B400AF094A094B1B78DBB243F00203DBB21370064A064B1B78DBB243F00203DBB2137000BFBD4680BC7047A8430040B843004080B500AF074B1B784F
:4055C000002B04D1FFF7CAFF044B01221A70FFF7D9FF802000F05EF800BF80BDC481FF1F80B400AF094A094B1B78DBB223F00203DBB21370064A064B1B78DBB223F0020332
:40560000DBB2137000BFBD4680BC7047A8430040B843004080B483B000AF0346FB710C4A0B4B1B78DBB223F00203DBB213700849074B1B78DAB2FB7903F00203DBB213436F
:40564000DBB20B7000BF0C37BD4680BC704700BF2458004080B582B000AF0346FB710C4A0B4B1B78DBB223F00C03DBB213700849074B1B78DAB2FB7903F00C03DBB21343CB
:40568000DBB20B7000F016F800BF0837BD4680BD2458004080B483B000AF0346FB71044AFB79137000BF0C37BD4680BC704700BF815B004080B483B000AF0B4B1B78DBB27B
:4056C00003F00C039B08DBB20633FB71074AFB7903F1924303F598731B78DBB2137000BF0C37BD4680BC7047245800400946004080B400AF074B1B78DBB203F02003002BC6
:4057000004D1054B1B78DAB2044B5A7000BFBD4680BC704725580040815B0040C881FF1F80B400AF154B1B78DBB203F02003002B1FD1134B1B78DBB203F00803002B14D0F8
:405740000F4A0F4B1B78DBB223F00803DBB213700C4B0D4A52781A70094A094B1B78DBB243F00803DBB2137003E0064B064A52781A7000BFBD4680BC704700BF2558004008
:405780008F5A0040815B0040C881FF1F80B500AF094B1B78DBB203F00203002B03D0074B01221A7002E0054B00221A70FFF718FFFFF79EFF00BF80BDA8430040C881FF1FE4
:4057C00080B500AFFFF7ACFF064B1B78012B07D1FFF7D8FE044B1B78DBB21846FFF75AFF00BF80BDC881FF1F815B004080B582B000AF0023FB7106E0FB791846FBF704FE84
:40580000FB790133FB71FB79012BF5D9034BFF221A7000BF0837BD4680BD00BFF280FF1F80B582B000AF0346FB71FFF7DFFFFB791846FBF7B3FD034AFB79137000BF08370B
:40584000BD4680BDF280FF1F80B582B000AF0023FB7106E0FB791846FBF730FEFB790133FB71FB79012BF5D9034BFF221A7000BF0837BD4680BD00BFF380FF1F80B582B06B
:4058800000AF0346FB71FFF7DFFFFB791846FBF7F5FD034AFB79137000BF0837BD4680BDF380FF1F80B582B000AF0023FB7106E0FB791846FBF738FDFB790133FB71FB79DB
:4058C000002BF5D0034BFF221A7000BF0837BD4680BD00BFF480FF1F80B582B000AF0346FB71FFF7DFFFFB791846FBF7E7FC034AFB79137000BF0837BD4680BDF480FF1FD6
:4059000080B582B000AF0023FB7106E0FB791846FBF79AFCFB790133FB71FB79022BF5D9034BFF221A7000BF0837BD4680BD00BFF580FF1F80B582B000AF0346FB71FFF7B5
:40594000DFFFFB791846FBF749FC034AFB79137000BF0837BD4680BDF580FF1F80B500AF00F01EF9034B1B78FF2B01D100F07CF800BF80BD0881FF1F80B500AF054B1B7895
:4059800001211846FDF728FF00F008FA00F026F900BF80BDCB81FF1F80B500AF064B1B78002B04D1FFF7DAFF034B01221A70FFF7E3FF00BF80BD00BFCA81FF1F80B500AF73
:4059C00000F006FA044B1B781846FDF74BFF00F01FF900BF80BD00BFCB81FF1F80B584B000AF0346FB80FB88DBB203F00F03BB73FB881B099BB27B73FB88B3F57F6F02D917
:405A00000020FEF7D7F87B7BFF2B0DD10023FB7306E0FB7B134AFF21D154FB7B0133FB73FB7B0F2BF5D919E00023FB7313E0FA7BBB7BC3F110039A4204DAFB7B09497A7BF9
:405A4000CA5405E0FB7B7A7B0132D1B2054AD154FB7B0133FB73FB7B0F2BE8D900BF1037BD4680BDF880FF1F80B500AF4FF4804341F6FF720121012000F060F803461A4663
:405A8000114B1A70FDF7FAFF03461A460F4B1A700E4B18780D4B1A7801231021FEF71CF80A4B1B780A4A91B245F683321846FEF753F8054B1A78054B1B7819461046FDF7DA
:405AC0006FFF00BF80BD00BFCB81FF1F0881FF1FF880FF1F80B500AF094B1B78DBB203F00803002B03D0074B01221A7002E0054B00221A70FFF762FF00F014F800BF80BD56
:405B0000A8430040CC81FF1F80B500AF00F010F8034B1B78012B01D1FFF72EFF00BF80BDCC81FF1F80B500AF00F0EAF800BF80BD80B500AF00F0FCF800BF80BD90B585B09A
:405B400002AF0446084611461A462346FB710346BB710B46BB8013467B80104B00221A700E4B1878BA79F97900230193002300930023FDF733FF094B1B787A88B988184628
:405B8000FDF7D2FE054B1B7802211846FDF79AFE024B1B7818460C37BD4690BD0981FF1F80B500AF0A4B00221A700A4B00221A70094A094B1B78DBB243F00803DBB21370BD
:405BC000042000F05FF8022000F03CF800BF80BD2C5800402D5800409F5A004080B400AF094A094B1B78DBB243F00803DBB21370064A064B1B78DBB243F00803DBB213702F
:405C000000BFBD4680BC7047A8430040B843004080B400AF094A094B1B78DBB223F00803DBB21370064A064B1B78DBB223F00803DBB2137000BFBD4680BC7047A8430040A2
:405C4000B843004080B483B000AF0346FB710C4A0B4B1B78DBB223F00203DBB213700849074B1B78DAB2FB7903F00203DBB21343DBB20B7000BF0C37BD4680BC704700BF5A
:405C80002C58004080B582B000AF0346FB710C4A0B4B1B78DBB223F00C03DBB213700849074B1B78DAB2FB7903F00C03DBB21343DBB20B7000F006F800BF0837BD4680BD08
:405CC0002C58004080B483B000AF0B4B1B78DBB203F00C039B08DBB20633FB71074AFB7903F1924303F59C731B78DBB2137000BF0C37BD4680BC70472C5800400B460040F8
:405D000080B400AF074B1B78DBB203F02003002B04D1054B1B78DAB2044B5A7000BFBD4680BC70472D580040835B0040D081FF1F80B400AF154B1B78DBB203F02003002BC5
:405D40001FD1134B1B78DBB203F00803002B14D00F4A0F4B1B78DBB223F00803DBB213700C4B0D4A52781A70094A094B1B78DBB243F00803DBB2137003E0064B064A527842
:405D80001A7000BFBD4680BC704700BF2D5800409F5A0040835B0040D081FF1F80B400AF094A094B1B78DBB243F00403DBB21370064A064B1B78DBB243F00403DBB213705B
:405DC00000BFBD4680BC7047A2430040B243004080B400AF094A094B1B78DBB223F00403DBB21370064A064B1B78DBB223F00403DBB2137000BFBD4680BC7047A2430040FB
:405E0000B243004080B500AF00F0BEFA00F0CEFA00BF80BD80B500AFFFF7F4FF00BF80BD80B500AF00F008FB00BF80BD80B584B000AF03460A46FB711346BB8000F048FB6D
:405E4000BB88B3F5006F70D2BB881B097B817B891B019BB2BA88D31A3B8100F06DFC0346002B5FD1FA1D39890123402000F07EFBF860FB68072B4CD14FF0FF33FB6000BF73
:405E80002D4B1B78DBB203F00203002BF8D02A4B1B78DBB203F00203002B08D0264B1B78DBB29B08DBB2002B01D10023FB60FB68002B2AD1214B1A78204B5B78798940206C
:405EC00000F0BCFB0346072B1BD14FF0FF33FB6000BF194B1B78DBB203F00203002BF8D0154B1B78DBB203F00203002B17D0124B1B78DBB29B08DBB2002B10D10023FB60D9
:405F00000DE04FF0FF33FB6009E04FF0FF33FB6005E0FB68012B02D04FF0FF33FB6000F03FFC04E00423FB6001E00123FB60FB6818461037BD4680BD22470040704A002025
:405F400080B584B000AF0346FB8000F061F90346FB7300F095FAFB8803F1804303F500431B78BB7300F0A4FAFB7B184600F054F9BB7B18461037BD4680BD00BF80B500AF32
:405F800000F002FA0346DBB2184680BD80B500AF084B10221A70084B00221A70064B064A1278D2B21A70022000F050F800F09EF800BF80BD285800402958004080B400AF19
:405FC000094A094B1B78DBB243F00403DBB21370064A064B1B78DBB243F00403DBB2137000BFBD4680BC7047A8430040B843004080B500AF074B1B78002B04D1FFF7C6FFE6
:40600000044B01221A70FFF7D9FF782000F05EF800BF80BDD281FF1F80B400AF094A094B1B78DBB223F00403DBB21370064A064B1B78DBB223F00403DBB2137000BFBD46CA
:4060400080BC7047A8430040B843004080B483B000AF0346FB710C4A0B4B1B78DBB223F00203DBB213700849074B1B78DAB2FB7903F00203DBB21343DBB20B7000BF0C37ED
:40608000BD4680BC704700BF2858004080B582B000AF0346FB710C4A0B4B1B78DBB223F00403DBB213700849074B1B78DAB2FB7903F00403DBB21343DBB20B7000F016F891
:4060C00000BF0837BD4680BD2958004080B483B000AF0346FB71044AFB79137000BF0C37BD4680BC704700BF825B004080B483B000AF104B1B78DBB203F00C035B08FB715B
:406100000D4B1B78DBB203F00403DBB2002B02D0FB790133FB71094AFB7903F1924303F594731B78DBB2137000BF0C37BD4680BC704700BF28580040295800400A46004055
:4061400080B582B000AF786000F04EF8786800F009F8072000F018F800F028F800BF0837BD4680BD80B485B000AF7860054B1B68FB60FB684C337A681A6000BF1437BD464C
:4061800080BC704708ED00E080B483B000AF0346FB71054AFB795B01DBB2137000BF0C37BD4680BC704700BF03E400E080B400AF034B08221A6000BFBD4680BC704700BF56
:4061C00000E100E080B400AF064B1B6803F00803002B01D0012300E000231846BD4680BC704700BF00E100E080B400AF034B08221A6000BFBD4680BC704700BF80E100E0A8
:406200000230800803D000BF01380046FCD17047EFF3108072B6704780F31088704700BF80B582B000AF1A4B1B78DBB203F00303012B02D0022B04D012E0154B1B79BB7198
:4062400011E0134B1B79DBB203F07F02114913465B0013449B000B440A331B78BB7102E00023BB7100BF0C4B1A68BB7913441B78032B04D1FCF736F90346FB7102E0002329
:40628000FB7100BFFB7918460837BD4680BD00BF00600040E8490020E449002080B582B000AF00F015F94FF0FF337B6000F044FA0346002B24D1012000F00CFA0346072BDC
:4062C0001BD10221124800F027F90346022B0DD100237B6002E00120FDF79AFC0D4B1B78DBB203F00203002BF5D006E0094B1B78DBB203F00203002BE3D000F051FA01E09A
:4063000004237B607B6818460837BD4680BD00BF704A00202247004080B582B000AF00F0D7F800F009FA0346002B23D100F060FA78607B68072B1AD102E00120FDF768FCAC
:40634000104B1B78DBB203F00203002BF5D00D4B1B78DBB203F00203002B08D0094B1B78DBB29B08DBB2002B01D100237B6000F017FA01E004237B607B6818460837BD4641
:4063800080BD00BF2247004080B582B000AFFFF7C3FF78607B68002B02D1FFF77FFF78607B6818460837BD4680BD00BF80B582B000AFFFF72DFF0346FB71194A184B1B78A0
:4063C000DBB243F00803DBB21370164A154B1B78DBB243F00803DBB21370134BC8221A70124A124B1B78DBB243F01003DBB213700F4A0F4B1B78DBB243F01003DBB213706A
:4064000000BF0C4B1B78DBB203F02003002BF8D0FB791846FFF700FF00BF0837BD4680BDA0430040B043004001470040AC430040BC4300400047004080B582B000AFFFF739
:40644000E7FE0346FB710C4A0B4B1B78DBB223F01003DBB21370094A084B1B78DBB223F01003DBB21370FB791846FFF7D5FE00BF0837BD4680BD00BFAC430040BC4300407E
:4064800080B400AF094A094B1B78DBB243F00103DBB2137000BF054B1B78DBB203F00203002BF8D000BFBD4680BC70470247004080B400AF054A054B1B78DBB223F00103DA
:4064C000DBB2137000BFBD4680BC70470247004080B582B000AFFFF79BFE0346FB710C4A0B4B1B78DBB243F00803DBB21370094A084B1B78DBB243F00803DBB21370FB7952
:406500001846FFF789FE00BF0837BD4680BD00BFA0430040B043004080B584B000AF78600B46FB700023FB7313E00120FDF770FB0C4B1B78DBB203F00103002BF5D0FB7BA9
:406540007A681344084A1278D2B21A70FB7B0133FB73FA7BFB789A42EAD3FB7B18461037BD4680BD224700402047004080B485B000AF3A601A460346FB710B46BB80134608
:40658000BB710723FB60FB793E2B02D8BB791F2B05D9FB793F2B45D9BB790F2B42D8254B1B78DBB203F00203002B38D0224BB6221A70214BD4221A701F4B01221A701D4B9E
:4065C0001B78DBB203F00203002B25D11A4AFB791370194ABB881B0A9BB2DBB203F00103DBB21370144BBA88D2B21A70124ABB79013BDBB213700023FB7208E00E49FB7A8C
:406600003A6813441B780B70FB7A0133FB72FA7ABB799A42F2D307E00923FB6004E00423FB6001E00123FB60FB6818461437BD4680BC7047224700402047004090B484B0F6
:4066400000AF0446084611461A462346FB710346BB800B46BB711346FB700723FB601B4B1B78DBB203F00203002B26D0184BB6221A70174BD8221A70154B05221A70134B44
:406680001B78DBB203F00203002B13D1104AFB7913700F4ABB881B0A9BB2DBB213700C4BBA88D2B21A700A4ABB791370084AFB78137004E00923FB6001E00423FB60FB6819
:4066C00018461037BD4690BC704700BF224700402047004080B485B000AF0346FB710723FB60134B1B78DBB203F00203002B16D0104BB6221A700F4BE1221A700D4B0E22DB
:406700001A700B4B1B78DBB203F00203002B03D1084AFB79137004E00923FB6001E00423FB60FB6818461437BD4680BC704700BF224700402047004080B582B000AF0423FD
:406740007B60FFF765FD0346FB70124B1B78002B16D1104B01221A7000237B600E4B1B6803F00103002B0BD00B4A0B4B1B6823F00103136000BF00BF00BF084B01221A606C
:40678000FB781846FFF748FD7B6818460837BD4680BD00BFD481FF1F04000840D881FF1F80B582B000AFFFF733FD0346FB710D4B00221A700C4B1B68012B0BD10B4A0B4B96
:4067C0001B6843F00103136000BF00BF00BF064B00221A60FB791846FFF71EFD00BF0837BD4680BDD481FF1FD881FF1F0400084080B483B000AF07237B600C4B1B78DBB259
:4068000003F00203002B09D0094BB6221A70084BE0221A70064B0D221A7001E004237B607B6818460C37BD4680BC704722470040204700402DE9F04F8DB006460F46144683
:406840001D4600F091F9DFF81093CDE9000199F90080B8F1FF3F46D022462B462046294601F016FD834600283DD132463B463046394601F00DFD8246002874D13046394637
:406880000022002301F0D2FC002833D0002200232046294601F0CAFC8346B8B1A94A012300200021CDF828A0CDE90467CDE90645CDE9080103920293B8F1000F6CD0A24BD5
:4068C0000022104619460DB0BDE8F08F2046294600F074FF38B1002200232046294601F0AFFC00286AD1DDE90023104619460DB0BDE8F08FDDE9000100F060FF8046002823
:406900007DD0DDE900014FF0000A4FF0000B52465B4601F08BFC0028E5D03046394600F04DFF0028DFD02046294600F047FF0028D9D099F90030834804210022022BCDE987
:406940000467CDE90645CDE908AB039002910A9204D002A800F038FF002847D101F044FD2223036042E0002200232046294601F05DFC0028B7D0744B724800220121B8F126
:40698000020FCDF828B0CDE90467CDE90645CDE9082303900291A8D002A800F015FF00287ED00A9B43B301F01FFDDDE908230A990160104619460DB0BDE8F08F614999F9F5
:4069C00000300122CDF828B0CDE90467CDE9064503910292002B68D05C490020022BCDE9080166D101F000FD212303600A9B1BB101F0FAFC0A9B0360DDE9082375E730465A
:406A0000394600F0DBFE00283FF47BAF2046294600F0D4FE00283FF474AFDDE900231046194601F035FC00286FD1464B99F90080039303230A90CDE90467CDE9064502939C
:406A4000B8F1000F3BD1DFF814B14FF0604A0022002330463946CDE908AB01F0F1FB00283FF477AF00223A4B2046294601F076F904460D4600F0B0FE02460B462046294647
:406A800001F0D4FB00283DD1324B4FF06042CDE9082399F90080B8F1020F7FF45AAF5DE701F0A2FC212303607BE700230024CDE9083402A800F088FE002897D192E7DFF844
:406AC000A0B04FF0000A0022002330463946CDE908AB01F0B5FB0028DDD000221C4B2046294601F03BF904460D4600F075FE02460B462046294601F099FB18B9134B00221D
:406B0000CDE9082399F90080C5E70E4A99F900900123CDF82880CDE90467CDE9064503920293B9F1000FC0D0002200231046194601F03EFAB9F1020FCDE908013FF452AF45
:406B4000B7E700BF748F00000000F03F0000F0FF0000E03FFFFFEFC70A81FF1FFFFFEF470000F07F000000002DE9F04F23F0004858EA020993B03CD0714C21F00046A64230
:406B800083460D460CDD06F1404606F5801656EA0B0038D183466B49584613B0BDE8F08F9A4696462BD0A045EDDC654CA04578D0002D0F468146CDE9002376DB0024BEF1E3
:406BC000000F27D15E4B984500F08B805D4B984552D0BAF1804F00F0C9835B4B9A4519D1002D17DB4846394613B0BDE8F04F00F01DBDCB465846534913B0BDE8F08F00284A
:406C0000C1D1B045D1DD514813B0BDE8F04F00F0DDBD00244846394600F0CCFDBBF1000F1CD0ED0F013D54EA050370D0484B984540F3948003F10473984540F30D84454BB1
:406C40009E4270DDBAF1000F70DD3BA3D3E900231046194601F082F883469DE726B1394B25F040429A42DCD1BAF1000FC0F2B783002D08DB83468FE7BAF1000FC0F25E84F8
:406C8000CB46394688E706F1404606F5801656EA040300F08384012CECD101F1004183467AE7BEF1000F83D06DE72B4B98452CDCA3F15473984581DD4FEA2853A3F2FF3371
:406CC000142B40F35384C3F134032EFA03F202FA03F39E457FF472AF02F00102C2F102046DE706F1404303F5801353EA0B0300F03A83184B9E4240F36783BAF1000F15DBD1
:406D0000DDE900349B46214646E7022457E74A4648463B46394600F06DFE02460B4601F047F9834638E7BAF1000F8EDB4FF0000B594631E7AFF300809C7500883CE4377EA1
:406D40000000F07F0000F03F0000E03F788F00000000E041FFFFEF3FFFFF3F43B6F5801F4FF0000205DAD04B00F0F8FF0E466FF03402DFF844E33315C6F31306A3F2FF334E
:406D800046F07F57764503EB020A47F4401740F3C983C64B00229E4240F304840023CDE90823CDE90C23C24B0022CDE906230AF1010AA7F5801700263946DDE90623CDE9B9
:406DC0000A0100F017FEDDE9062380468946DDE90A0100F011FE02460B460020B44901F0E7F80A4601461346CDE90E1202464946404600F0B3FF8C4683467B1043F0005338
:406E000003F5002399190020CDE904BC06460F464FF0000B6146584632463B46CDE910BCCDE9020100F09AFF02460B464046494600F0E0FDDDE9062380468946304639460E
:406E400000F0D8FD02460B46DDE90A0100F0D2FDDDE9022300F082FF02460B464046494600F0C8FDDDE90E2300F078FFDDE90478CDE906013A4643463846414600F06EFF9D
:406E800077A3D3E9002306460F4600F067FF76A3D3E9002300F0B0FD32463B4600F05EFF73A3D3E9002300F0A7FD32463B4600F055FF71A3D3E9002300F09EFD32463B46CA
:406EC00000F04CFF6EA3D3E9002300F095FD32463B4600F043FF6CA3D3E9002300F08CFD3246804689463B463046394600F036FF02460B464046494600F030FFDDE90223F3
:406F000006460F46DDE9040100F076FDDDE9062300F024FF32463B4600F06EFDDDE902678046894632463B463046394600F016FF0022604BCDE90A0100F05EFD42464B4683
:406F400000F05AFDDDE910BC0F46DDE902015A463B46CDE90EBC5E4600F000FF0022CDE90201544B3046394600F044FDDDE90A2300F040FD02460B464046494600F03AFD51
:406F8000DDE9042300F0EAFE324680468946DDE906013B4600F0E2FE02460B464046494600F02AFD8046894602460B46DDE9020100F022FDDDE90EBC35A3D3E90023584631
:406FC000CDE906BC5E460F4600F0C8FEDDE90223CDE904013046394600F00CFD02460B464046494600F006FD2BA3D3E9002300F0B5FE2BA3D3E900238046894630463946AE
:4070000000F0ACFE02460B464046494600F0F4FCDDE90C2300F0F0FC80465046894600F037FE06460F46DDE9040142464B4600F0E3FCDDE9082300F0DFFC32463B4600F00E
:40704000DBFCDDE906BC324658463B46DA468B4600F0D0FCDDE9082330E000BFAFF30080EF4E454A287ECA3F65DBC9934A86CD3F01411DA96074D13F4D268F515555D53F9B
:40708000FFAB6FDBB66DDB3F033333333333E33F000000E009C7EE3FFD033ADC09C7EE3FF5015B14E02F3EBE0000404379B60B000000F03F000008408E98030000F09AFC38
:4070C000DDE9042300F096FC02460B464046494600F090FC80468946DDE90012013C54EA050314BFD64CD74C0023CDE904340B461446CDE9023400230293DDE90245084634
:407100002B461146224600F075FC52465B4600F025FEDDE9002306460F464046494600F01DFE02460B463046394600F065FC06460F4622462B4650465946CDE9006700F02D
:407140000DFE0B460246804689463046394600F053FCBD4B064699420D460C4640F30E8101F13F4303F5E003034340F0F081A0A3D3E90023DDE9000100F03EFC4246824673
:407180008B464B463046294600F034FC02460B465046594601F072F8002840F0D8812F463B154FF48012A3F2FE3342FA03F32344C3F30A52A54EA2F2FF321641C3F3130BA0
:4071C0000020C2F1140523EA06014BF4801B02460B46002C4BFA05FB40464946B8BFCBF1000B00F007FC02460B4680468946DDE9000100F001FC4FEA0B5A00247EA3D3E9E4
:40720000002320460D4600F0A9FD424606460F464B462046294600F0EDFB02460B46DDE9000100F0E7FB76A3D3E9002300F096FD75A3D3E90023804689462046294600F077
